:020000040801F1
:1000000068B200105D02010827630208591C02084B
:1000100025630208F3300108658A02080000000029
:100020000000000000000000000000009D01010829
:10003000C94C010800000000F1010108E97A02083A
:1000400077020108770201087702010877020108A8
:100050007702010877020108770201087702010898
:100060007702010877020108770201087702010888
:10007000770201087702010825410108770201088B
:100080007702010877020108770201087702010868
:100090007702010877020108770201087702010858
:1000A00077020108418302087702010877020108FC
:1000B0007702010877020108770201087702010838
:1000C0007702010877020108770201087702010828
:1000D00077020108358A0208770201084D8A020872
:1000E0007702010877020108770201087702010808
:1000F00077020108770201087702010877020108F8
:1001000077020108770201087702010877020108E7
:1001100077020108770201087702010877020108D7
:1001200077020108770201087702010877020108C7
:1001300077020108770201087702010877020108B7
:1001400077020108770201087702010877020108A7
:10015000770201087702010831410108770201089E
:100160007702010877020108770201087702010887
:1001700077020108770201087702010800000000F9
:100180007702010877020108DFF80CD000F082FC4A
:100190000048004771F6030868B200102B4B19683D
:1001A0000868B0E8F04F80F30988BFF36F8F4FF015
:1001B000000080F3118870470000000006480068C6
:1001C000006880F3088862B661B6BFF34F8FBFF353
:1001D0006F8F00DF00BF00BF08ED00E0DFF80C000C
:1001E000016841F470010160704700BF88ED00E0D4
:1001F000EFF30980BFF36F8F144B1A681EF0100FD6
:1002000008BF20ED108A20E9F04F106008B44FF0CD
:10021000300080F31188BFF34F8FBFF36F8F36F03C
:1002200057FC4FF0000080F3118808BC196808687B
:10023000B0E8F04F1EF0100F08BFB0EC108A80F34A
:100240000988BFF36F8F704700BF00BF2C010010FB
:10025000EFF305807047000040BA704706488047BA
:1002600006480047FEE7FEE7FEE7FEE7FEE7FEE79B
:10027000FEE7FEE7FEE7FEE7B57B0208890101081D
:100280002DE9F05F0546002092469B4688460646CB
:10029000814640241BE0284641464746224600F05E
:1002A0001BFA53465A46C01A914110D311461846BC
:1002B000224600F002FA2D1A67EB01084F4622464B
:1002C0000120002100F0F9F917EB00094E41201E32
:1002D000A4F10104DFDC484631462A464346BDE826
:1002E000F09F00000649074A0868504343F239026C
:1002F00010440860400870470149086070470000DA
:10030000900400106D4EC64110B5431A934209D2B5
:100310008318881803E010F8011D03F8011D521E10
:10032000F9D210BD40EA01039B0703D009E008C9D8
:10033000121F08C0042AFAD203E011F8013B00F8AA
:10034000013B521EF9D210BDD2B201E000F8012BE0
:10035000491EFBD270470022F6E710B513460A4645
:1003600004461946FFF7F0FF204610BD421C10F866
:10037000011B0029FBD1801A704730B504460020CC
:10038000034600E05B1C934203D2E05CCD5C401B63
:10039000F8D030BD034611F8012B00F8012B002ADC
:1003A000F9D11846704770B5064623F0A9F90468DC
:1003B00005460A220021304600F0B0F92C6070BDDD
:1003C0002DE9FE4F804681EA0300C00F0C460090E5
:1003D00021F0004123F00045B8EB0200A94105D20D
:1003E0004046214690461C460B46024623F00040FC
:1003F000104347D0270DC7F30A00C3F30A510290F8
:10040000401A019040286BDAC3F3130040F4801BBC
:100410000098924620B10023D2EB030A63EB0B0B4A
:1004200001985946C0F14002504600F046F9064690
:100430000D4650465946019A00F05EF910EB08004F
:100440006141002487EA115284EAE7731A4340D0DD
:10045000009A62B3019A012A4FEA075215DC001B89
:1004600061EB02014FF0004202EA0752CDE900427F
:10047000001C41F5801132462B4600F0CDF903B047
:10048000BDE8F08F40462146F9E7001B61EB020111
:10049000001C41F5801300185B412018A2F50017DD
:1004A00047EB030140EAD570B6196D4111E06D08C4
:1004B0004FEA360645EAC0754FEA0752001B61EB6A
:1004C0000201001C41F5801149084FEA3000001973
:1004D000514132462B4603B0BDE8F04F00F08DB9D4
:1004E0000098012240000023D0EB020263EBE0738E
:1004F000009821464FEAE074B8EB000061EB04017C
:10050000E9E783F000435BE781F0004158E72DE91C
:10051000FE4F81EA030404F0004421F000410094FE
:100520004FF0000B23F0004350EA01045ED052EA82
:1005300003045BD0C3F30A54C1F30A552C44A4F25C
:10054000F3340194A0FB0254C1F3130141F4801170
:10055000C3F3130343F4801301FB024400FB034E77
:10056000840A970A44EA815447EA8357A4FB076840
:1005700002958D0A05FB07854FEA932C04FB0C546A
:100580002705029D4FEA065847EA1637B5EB0805DE
:100590006EEB070C870E920E47EA811742EA831230
:1005A000A7FB0201B6EB0B0164EB00042B0D43EA41
:1005B0000C335E1844EB1C50DA465146E7FB02014F
:1005C000C5F313044FEA0B3343EA14534FEA0432E2
:1005D000019C43EA0603A4F10C040294009CCDE9BB
:1005E00000B400F019F903B0BDE8F08F0020014617
:1005F000F9E770B5C1F30A5201F000450024C1F3D8
:10060000130140F2FF3341F480119A4201DA0020D5
:1006100070BD40F233439A42A2F2334203DC5242AD
:1006200000F05AF800E090402C43F1D0404270BDF9
:1006300000F0004230F000400AD0C10D01F56071B9
:10064000C0F3160042EA0151C20840071143704747
:1006500000200146704701F0004330B421F0004112
:1006600050EA010206D00A0DA2F56072C1F313012F
:10067000002A02DC30BC00207047440F44EAC10469
:10068000C100E01830BC00EBC25000F07FB830B5BC
:100690000B46014600202022012409E021FA02F540
:1006A0009D4205D303FA02F5491B04FA02F52844DA
:1006B000151EA2F10102F1DC30BD202A04DB203A34
:1006C00000FA02F1002070479140C2F1200320FAA5
:1006D00003F3194390407047202A04DB203A21FAA3
:1006E00002F00021704721FA02F3D040C2F120024B
:1006F0009140084319467047202A06DBCB17203A61
:1007000041FA02F043EAE07306E041FA02F3D04016
:10071000C2F1200291400843194670472DE9F04785
:1007200091460F4680460446002614F8015B2DB121
:1007300000F0C2F90068405DC007F6D12B2D02D051
:100740002D2D18D0641E4A463946204600F0B8F9CF
:1007500027B13968A14201D1C7F8008071054FF077
:1007600002040BD54042002803DD22F0C9FF0460DB
:10077000A007BDE8F08746F48066E4E70028F8DAD1
:1007800022F0BEFF04606FF00040F2E70029A8BF2E
:100790007047401C490008BF20F00100704710B4AA
:1007A000B0FA80FC00FA0CF050EA010404BF10BC5F
:1007B000704749B1CCF1200421FA04F411FA0CF18C
:1007C00018BF012121430843A3EB0C01CB1D4FEAC5
:1007D00000614FEA102042BF002010BC704700EBC0
:1007E000C35010440029A4BF10BC7047401C4900EE
:1007F00008BF20F0010010BC704710B5141E73F143
:10080000000408DA401C41F1000192185B411A43D0
:1008100001D120F0010010BD2DE9F04D92469B461C
:1008200011B1B1FA81F202E0B0FA80F220329046C2
:10083000FFF743FF04460F4640EA0A0041EA0B0176
:1008400053465A46084313D0114653EA010019D0C3
:10085000C8F140025046FFF73FFF05460E4650469E
:1008600059464246FFF729FF084305D0012004E01E
:1008700020463946BDE8F08D0020054346EAE07683
:100880002C4337430A986305E40AA0EB08000022D2
:10089000FD0A44EA47540A3002D500200146E9E740
:1008A000010510196941DDE9084500196941BDE8F4
:1008B000F04DA2E72DE9F04D81EA030404F0004B6E
:1008C00021F0004514464FF0000A23F0004150EAA1
:1008D000050220D054EA01021DD0C5F30A57024692
:1008E000C5F31303C1F31300C1F30A5640F4801596
:1008F00043F48013A7EB0608101BD64608F2FD3818
:1009000073EB050002D308F1010801E092185B4186
:10091000B8F1000F03DA00200146BDE8F08D002099
:100920004FF48011064684460EE0171B73EB050753
:1009300005D3121B63EB050306434CEA010C49087F
:100940004FEA300092185B4150EA0107EDD152EABC
:10095000030012D082EA040083EA0501084305D0AF
:10096000101BAB4106D20122002306E000224FF00B
:10097000004302E06FF0010253101AEB06004CEB4B
:10098000085110EB0A0041EB0B01BDE8F04DFFF7F9
:1009900034BF2DE9F04D00231A461B1A8A4103DBB0
:1009A00000200146BDE8F08DC1F30A52C1F31301E6
:1009B00041F480154FF0000BD10702D100186D41B2
:1009C000521E0027044640F2FF11384601EB620A2E
:1009D0003E468046024600204FF48011FFF77CFE21
:1009E000C2197141BB1846EB0100B4EB030C75EB67
:1009F000000C04D3E41A65EB000517460E462419D3
:100A000008F101006D4180463428E3DDF91946EB19
:100A10000600091BA84103D24FF0FF32134601E044
:100A2000002213461BEB070046EB0A51BDE8F04DD0
:100A3000FFF7E3BEC1F30A52C1F3130140F2FF33E3
:100A400041F480119A4202DA00200146704740F2D8
:100A500033439A42A2F2334202DC5242FFF73CBED9
:100A6000FFF72BBE30B5041E71F1000404DB4FF01C
:100A70000044404264EB0101141E73F1000405DBE5
:100A80001C464FF00043524263EB0403994208BFF7
:100A9000904230BD064C074D06E0E06840F001038F
:100AA00094E8070098471034AC42F6D3FFF770FB88
:100AB00084FD0508C4FD050800487047FCF50508DD
:100AC0002DE9F05F82460078002715468B460AF133
:100AD0000104B946302801D09DB113E014F8010B90
:100AE0000127782803D0582801D045B10AE00DB17C
:100AF000102D07D10027102514F8010B02E008255E
:100B000000E00A250026B0460EE005FB080005FBC4
:100B100006F1012701EB10461FFA80F8B6F5803F79
:100B200000D3B94614F8010B294600F018F8002844
:100B3000EBDABBF1000F05D00FB1641E00E05446A4
:100B4000CBF80040B9F1000F06D022F0D9FD022108
:100B50000160C81EBDE8F09F48EA0640FAE73A285F
:100B600000D2303820F02002412A01D3A2F1370010
:100B7000884201D34FF0FF30704770B58C1810F8E1
:100B8000015B15F0070301D110F8013B2A1106D1D2
:100B900010F8012B03E010F8016B01F8016B5B1EEC
:100BA000F9D12B0705D40023521E0DD401F8013BC7
:100BB000FAE710F8013BCB1A921C03E013F8015B33
:100BC00001F8015B521EF9D5A142D8D3002070BDB7
:100BD00070B50023084D0CE011F8134001EB4306FB
:100BE0002C5D2401C4547678AE5D3444C4545B1C3F
:100BF0009BB29342F0D370BD6C76040870B5244D5F
:100C0000012128460FF08CF8224C0028207833D0A0
:100C100040F00100204E2070B07D00F00F0002284F
:100C20000AD04FF4005128460FF07AF80028607877
:100C300025D040F001006070B07D80061BD5174DB7
:100C4000402128460FF06CF8012820781AD040F097
:100C500010002070B07D00F00F01012901D008299B
:100C600009D1202128460FF05BF8012860780CD0CC
:100C700040F01000607070BD20F00100CAE720F065
:100C80000100D8E720F01000E3E720F01000F1E7C2
:100C90000008024000000020400600100010024042
:100CA0002DE9F05FDFF8F8932DED048B99F816002D
:100CB00000F00F00012812D0082810D001272022B0
:100CC0009021F848FFF740FBDFF8D8A30026DFF8B3
:100CD000D8B3B046AAF1900AB1EE048AD9E102274E
:100CE000F2E7304602F08CFF0D21304603F04CF95C
:100CF00006EBC60210EE101A0AEB02143046216011
:100D00000E2103F041F910EE100A0F216060304609
:100D100003F03AF910EE100A5D46A0602068A84280
:100D20000EDD4821304603F02FF92068F0EE400A2E
:100D300000EE100A17F0D6FA10EE100AA06701E0D4
:100D4000C4F878806068A8420EDD4921304603F07F
:100D50001BF96068F0EE400A00EE100A17F0C2FAC4
:100D600010EE100AE06701E0C4F87C80A068A84299
:100D70000FDD4A21304603F007F9A068F0EE400A83
:100D800000EE100A17F0AEFA10EE100AC4F8800058
:100D900001E0C4F88080606800EE900A206800EEF0
:100DA000100A17F061FE10EE100AE060A06800EE75
:100DB000900A606800EE100A17F056FE10EE100A56
:100DC0002061206800EE900AA06800EE100A17F07B
:100DD0004BFE10EE100A10216061304603F0D4F88B
:100DE00009EB4605112135F81B0F00EE900AF8EECD
:100DF000600A60EE200A80EE880A10EE100AA061F8
:100E0000304603F0C1F82888122100EE900AF8EE6F
:100E1000600A60EE200A80EE880A10EE100AE06197
:100E2000304603F0B1F835F81B0906EB061200EE68
:100E3000900A9E48F8EE600A00EB820060EE200AFD
:100E400080EE880A10EE101A21620268A36900EE93
:100E5000102A00EE903AB4EEE00AF1EE10FA00DC4F
:100E60001A4602604268E36900EE102A00EE903AEA
:100E7000B4EEE00AF1EE10FA00DC1A464260826835
:100E800000EE901A00EE102AB4EEE00AF1EE10FA2D
:100E900000DD114681604B21304603F075F835F8CE
:100EA0001B0F00EE900A54F8180FF8EE600A20EEBF
:100EB000200AC0EE080A00EE100A17F013FA10EE2E
:100EC000100A4C21E066304603F05EF8288800EEF8
:100ED000900A6068F8EE600A20EE200AC0EE080A68
:100EE00000EE100A17F0FEF910EE100A4D212067EF
:100EF000304603F049F8288800EE900AA068F8EE22
:100F0000600A20EE200AC0EE080A00EE100A17F070
:100F1000E9F910EE100A01216067304602F0F6FF91
:100F2000288800EE900AF8EE600A20EE200AC0EE53
:100F3000080ADFED5F8A022180EEA80A10EE100A8F
:100F4000E061304602F0E2FF2888032100EE900ABB
:100F5000F8EE600A20EE200AC0EE080A80EEA80A29
:100F600010EE100A2062304602F0D0FF28880421DB
:100F700000EE900AF8EE600A20EE200AC0EE080AA1
:100F800080EEA80A10EE100A6062304602F0BEFF42
:100F9000B0EE009A288860EE090A00EE100A0521DA
:100FA000B8EE400A20EE800AC0EE080A80EEA80AD9
:100FB00010EE100AA062304602F0A8FF2888062131
:100FC00000EE900AF8EE600A20EE200AC0EE080A51
:100FD00080EEA80A10EE100AE062304602F096FF9A
:100FE0002888072100EE900AF8EE600A20EE200A19
:100FF000C0EE080A80EEA80A10EE100A2063304600
:1010000002F084FF2888082100EE900AF8EE600ABA
:1010100020EE200AC0EE080A80EEA80A10EE100AA0
:101020006063304602F072FF288860EE090A00EE25
:10103000100A1C21B8EE400A20EE800AC0EE080A11
:1010400080EEA80A10EE100AA063304602F088FE77
:1010500010EE100A1421E065304602F03DFF10EE5C
:10106000100A1521E060304602F036FF10EE100A3B
:1010700016212061304602F02FFF10EE100A1721D2
:101080006061304602F028FF10EE100A761CA06165
:10109000F6B2BE42FFF425AEBDEC048BBDE8F09F76
:1010A00040060010280500100000A040B805001000
:1010B00000007A442DE9F04700254FF480792E4650
:1010C000DFF888803FE0EDB34FF490771E2128468B
:1010D00002F00AFE1F21284602F006FE20212846C3
:1010E00002F002FE2121284602F0FEFD22212846C0
:1010F00002F0FAFD2321284602F0F6FD24212846BD
:1011000002F0F2FD2521284602F0EEFD05EBC501B7
:1011100008EB01146665A665E66526666666A66642
:10112000E666266735F01CFB04F1540020223946A0
:1011300005F086FF35F034FB6D1CEDB2022DC2D3F5
:10114000BDE8F087FFE74F46C0E7000098040010B5
:101150002DE9F04100244FF480774FF490750A4E4A
:101160000FE074B1294604EBC40006EB0010202206
:10117000543005F055FE641CE4B2022CF1D3BDE8F6
:10118000F0813946EFE700009804001010B5002107
:101190009FED140A144B154C0A46C1EBC10003EB3A
:1011A000800080ED000A80ED010A80ED020A80EDEA
:1011B000030A80ED040A80ED050A80ED060A01EBC2
:1011C000011004EB8000491C026042608260826171
:1011D000C261026242638263C263C9B202640229CD
:1011E000DBD310BD0000000020070010B805001080
:1011F0002DE9F05FDFF85CB32DED028B9BF8160054
:1012000000F00F0001280CD008280AD001208246E7
:101210000024DFEDD18A4FF00508B1EE048ACF4FEC
:101220008EE10220F3E7002C7DD04FF490708146D0
:101230001E21204602F058FDC9480BEB440600EB86
:101240000415D5ED000A30EE200A85ED000AB6F847
:101250001B1000EE901AB1FBF8F2F8EE600A20EED7
:10126000201AC1EE080A60EEA80AFCEEE00A10EEB1
:10127000900A80B200EE900AF8EE600A80EEA81A9A
:1012800000EE902AF8EE601AC1EE210AF4EEC00AD0
:10129000F1EE10FA18D800EE900AB1FBF8F1F8EE72
:1012A000600A80EEA81A00EE901A04EBC40107EB66
:1012B0000111F8EE601AC1EE210A30EE600A85EDE8
:1012C000000A4A6D104448651F21204602F00CFDBB
:1012D000D5ED010A30EE200A85ED010AB6F81B10A3
:1012E00000EE901AB1FBF8F2F8EE600A20EE201A38
:1012F000C1EE080A60EEA80AFCEEE00A10EE900AC1
:1013000080B200EE900AF8EE600A80EEA81A00EEB5
:10131000902AF8EE601AC1EE210AF4EEC00AF1EE4E
:1013200010FA1AD800E012E100EE900AB1FBF8F1D1
:10133000F8EE600A80EEA81A00EE901A04EBC401E1
:1013400007EB0111F8EE601AC1EE210A30EE600AD7
:1013500085ED010A8A6D104488652021204602F03F
:10136000C3FCD5ED020A30EE200A85ED020AB6F87C
:101370001B1000EE901AB1FBF8F2F8EE600A20EEB6
:10138000201AC1EE080A60EEA80AFCEEE00A10EE90
:10139000900A80B200EE900AF8EE600A80EEA81A79
:1013A00000EE902AF8EE601AC1EE210AF4EEC00AAF
:1013B000F1EE10FA18D800EE900AB1FBF8F1F8EE51
:1013C000600A80EEA81A00EE901A04EBC40107EB45
:1013D0000111F8EE601AC1EE210A30EE600A85EDC7
:1013E000020ACA6D1044C8652121204602F07CFC27
:1013F000D5ED030A30EE200A85ED030AB6F81B107E
:1014000000EE901AB1FBF8F3F8EE600A20EE201A15
:10141000C1EE080A60EEA80AFCEEE00A10EE900A9F
:1014200080B200EE900AF8EE600A80EEA81A00EE94
:10143000903AF8EE601AC1EE210AF4EEC00AF1EE1D
:1014400010FA18D800EE900AB1FBF8F1F8EE600A35
:1014500080EEA81A00EE901A04EBC40107EB01110C
:10146000F8EE601AC1EE210A30EE600A85ED030A3B
:101470000A6E104408662221204602F035FC36F838
:101480001B0F232100EE900A04EBC40007EB0015AC
:10149000F8EE600A686E20EE200AC0EE080A00EE40
:1014A000100A30EE800A10EE100A6866204602F03C
:1014B0001BFC3088242100EE900AA86EF8EE600A2A
:1014C00020EE200AC0EE080A00EE100A30EE800A74
:1014D00010EE100AA866204602F006FC308825218E
:1014E00000EE900AE86EF8EE600A20EE200AC0EEE8
:1014F000080A00EE100A30EE800A10EE100AE866C4
:10150000204602F0F1FB308800EE900A286FF8EEDA
:10151000600A20EE200AC0EE080A00EE100A30EE43
:10152000800A10EE100A286735F01AF905F1540008
:101530002022494605F084FD35F032F9641CE4B2FE
:101540005445FFF470AEBDEC028BBDE8F09F4FF444
:1015500080706CE6400600100000C842980400103D
:10156000000700102DE9F05F8B48807D00F00F0030
:1015700001280AD0082808D00124202244218748C5
:10158000FEF7E2FE0022864B4BE00224FAE7854993
:1015900002EBC20501EB0511C2EBC20003EB8000B8
:1015A0008D69D0ED000A00EE105A521CD2B230EE16
:1015B000800A80ED000ACD69D0ED010A00EE105AD4
:1015C00030EE800A80ED010A0D6AD0ED020A00EECD
:1015D000105A30EE800A80ED020A4D6BD0ED030AFE
:1015E00000EE105A30EE800A80ED030A8D6BD0EDCC
:1015F000040A00EE105A30EE800A80ED040ACD6B2A
:10160000D0ED050A00EE105A30EE800A80ED050A92
:10161000096CD0ED060A00EE101A30EE800A80ED5B
:10162000060AA242B3D360490878401CC0B20870D1
:101630000F287CD1DFF864E10022AEF1440E9B4616
:1016400099E0C2EBC2010BEB8101B2EE0E0A91ED03
:10165000001A02EB02150EEB8500C1EE000A10EE37
:10166000903AC36091ED011A99464B46C1EE000ACB
:1016700010EE908AC0F8108091ED021AC1EE000AB7
:1016800010EE90CAC0F814C091ED031AC1EE000A22
:1016900010EE907A476291ED041AC1EE000A10EE46
:1016A000906A866291ED051AC1EE000A10EE905A1A
:1016B000C56291ED061AC1EE000A10EE901A00EE16
:1016C000909A0163D0F818A000EE10AAB4EEE00AD8
:1016D000F1EE10FA00DD53468361C36900EE908A93
:1016E00000EE103AB4EEE00AF1EE10FA00DD984692
:1016F000C0F81C80036A00EE90CA00EE103AB4EE07
:10170000E00AF1EE10FA00DD9C46C0F820C0436B01
:1017100000EE907A00EE103AB4EEE00AF1EE10FA24
:1017200000DD1F464763836B00EE103A00E031E0B6
:1017300000EE906AB4EEE00AF1EE10FA00DD1E460B
:101740008663C36B00EE905A00EE103AB4EEE00AE6
:10175000F1EE10FA00DD1D46C563036C00EE901A31
:1017600000EE103AB4EEE00AF1EE10FA00DD194690
:10177000521C0164D2B2A242FFF463AF00209FED7D
:101780000B0A594601EB8002401CC0B282ED000AF0
:101790000E28F7D3BDE8F09F40060010FC050010AE
:1017A0002007001098040010240000100000000022
:1017B00070B50D46040002D000F0AEFE02E0104607
:1017C00000F06AFF05480278521C02700448017854
:1017D00041F0010101702C7070BD00002500001067
:1017E0002C00001038B54FF4A06502222946684647
:1017F00005F016FBBDF8001045F2AA50AC1C814262
:1018000005D1032221460B4805F00AFB38BDADF88F
:10181000000002222946684605F012FC054A002015
:101820002146A2F8010010700322024805F008FCCE
:1018300038BD0000260000102DE9F05F80462DED38
:10184000028BB0EE408A18EE100ADFF84CA2144664
:101850000E46B0F1844F63D000EE106A0AF1A40086
:101860000519B8EE400A8D4F00F1A40BA0F5BB7925
:10187000B4EEC08AF1EE10FA59DB005D032852D0B5
:101880003878B8460A2811D30127C7EBC70000EB08
:1018900040014944A1F115001522FEF735FD7F1CDA
:1018A000FFB20A2FF1D3092088F8000003230AF8B9
:1018B000043098F800104046C1EBC10101EB410132
:1018C0004A4611440B7598F8001018EE107AC1EBD7
:1018D000C10101EB41011144CC7498F80010C1EB37
:1018E000C10101EB41011144C1F80D700178C1EB58
:1018F000C10101EB41011144A1F811608BF81430D2
:10190000594618EE103A8BF8134041F80D3F8E807F
:1019100000782946C0EBC00000EB400010445BE0BB
:1019200020210AF80210BDEC028BBDE8F09F00EE0A
:10193000108AB8EE400AB4EEC08AF1EE10FA4EDB1F
:10194000005D0228EFD038780A2810D30126C6EBB4
:10195000C60000EB40014944A1F115001522FEF735
:10196000D3FC761CF6B20A2EF1D30920387002227D
:101970000AF804203878C0EBC00000EB400148466C
:1019800001440A75397818EE103AC1EBC10101EB38
:1019900041010144CC743978C1EBC10101EB410133
:1019A0000144C1F80D303978C1EBC10101EB4101AF
:1019B0000144A1F811808BF8142018EE102A8BF83E
:1019C0001340CBF80D20ABF811803A782946C2EBD2
:1019D000C20202EB420210442246007D56E02E482D
:1019E000A430005D00289ED03878BB460A2811D369
:1019F0000127C7EBC70000EB40014944A1F11500E6
:101A00001522FEF781FC7F1CFFB20A2FF1D30920BB
:101A10008BF8000020480021A4300AF80410035D70
:101A20009BF800005946C0EBC00000EB40004A465E
:101A3000104403759BF80000C0EBC00000EB4000B1
:101A40001044C47418EE100A9BF80070032BC7EB07
:101A5000C70707EB47071744C7F80D0002D0022B52
:101A600009D010E00878C0EBC00000EB4000104443
:101A7000A0F8116007E00878C0EBC00000EB400060
:101A80001044A0F81180294622460020BDEC028BAC
:101A9000BDE8F05FFFF78CBEB20500202500001006
:101AA0002DE9F05F0546B7480C4600EB0409202DF0
:101AB00058D0A4300719B44EA7F10C0B4FF0090A07
:101AC000A0F5BB78012D52D0002D4ED1132C7DD81E
:101AD0008346005D002848D03078B1460A2810D3EC
:101AE0000126C6EBC60000EB40014144A1F1150000
:101AF0001522FEF709FC761CF6B20A2EF1D389F8FE
:101B000000A0A048002101551BF8043099F80000FE
:101B10004946C0EBC00000EB40004246104403754C
:101B200099F8000000EE105AC0EBC00000EB400036
:101B3000B8EE400A1044C47410EE103A99F8000050
:101B4000C0EBC00000EB40001044C0F80D30087836
:101B50000123C0EBC00000EB400010443946A0F860
:101B6000113009E1202109F80C1CBDE8F09F132C6D
:101B700061D8005D0128F8D03078B1460A2813D327
:101B80000126C6EBC60000EB400101EB0800A0F106
:101B90001503014615221846FEF7B6FB761CF6B271
:101BA0000A2EEED389F800A099F8001048460A29B9
:101BB00001D180F800A0734A012111550278C2EBCF
:101BC000C20202EB42034246134400E08BE0197567
:101BD000037800EE105AC3EBC30303EB4303B8EEE4
:101BE000400A1344DC7410EE106A0378C3EBC3039D
:101BF00003EB43031344C3F80D60037800EE105A5F
:101C0000C3EBC30303EB43031344B8EE400AA3F84A
:101C100011105E4B10EE105A1975DC7443F80D5F0D
:101C2000998000783946C0EBC00000EB40001044BA
:101C30002246007DA2E0202C97D317F80C0C012837
:101C400093D030780A2810D30127C7EBC70000EBE8
:101C500040014144A1F115001522FEF755FB7F1C00
:101C6000FFB20A2FF1D386F800A0012009F80C0C6E
:101C70003178C1EBC10101EB410241460A441075C4
:101C8000327800EE105AC2EBC20202EB4202B8EE0A
:101C9000400A0A44D47410EE103A3278C2EBC20201
:101CA00002EB42020A44C2F80D30327800EE105ABC
:101CB000C2EBC20202EB42020A44B8EE400AA2F8AA
:101CC0001100324A10EE103A1075D47442F80D3FEC
:101CD000908030782246C0EBC00000EB4000084402
:101CE0005946007D4AE0202CA6D317F80C0C00289A
:101CF000A6D0254800780A2811D30126C6EBC600D5
:101D000000EB40014144A1F115001522FEF7FCFA59
:101D1000761CF6B20A2EF1D31B4880F800A00020F2
:101D2000194909F80C0C17F80C3C08784246C0EB2E
:101D3000C00000EB400010440375087800EE105A14
:101D4000C0EBC00000EB4000B8EE400A1044C47481
:101D500010EE103A0878C0EBC00000EB40001044D1
:101D6000C0F80D3008780123C0EBC00000EB400044
:101D700010445946A0F8113022460020BDE8F05F1B
:101D8000FFF716BDB205002025000010FA0600205E
:101D90002DE9F05F06462DED028BB0EE408A18EE7D
:101DA000100ADFF878A10C46B0F1844F61D000EE44
:101DB000106A0AF1A4000719B8EE400A5849A0F5C4
:101DC000BB78B4EEC08AF1EE10FA59DB005D022850
:101DD00052D0087889460A2811D30125C5EBC500E1
:101DE00000EB40014144A1F115001522FEF78CFAE9
:101DF0006D1CEDB20A2DF1D3092089F800000223F1
:101E00000AF8043099F800104846C1EBC10101EB13
:101E1000410241460A44137599F8002018EE105A01
:101E2000C2EBC20202EB42020A44D47499F80020C9
:101E3000C2EBC20202EB42020A44C2F80D50027821
:101E4000C2EBC20202EB42020A44A2F81160354A18
:101E5000137518EE103AD47442F80D3F968000784E
:101E60002246C0EBC00000EB400008443946007D2C
:101E70004DE020210AF80410BDEC028BBDE8F09F74
:101E80008346005D0028F7D0087889460A2811D3D8
:101E90000125C5EBC50000EB40014144A1F115004F
:101EA0001522FEF731FA6D1CEDB20A2DF1D309208F
:101EB00089F8000000210AF804101BF8043099F892
:101EC00000004946C0EBC00000EB40004246104411
:101ED000037599F8000018EE103AC0EBC00000EB53
:101EE00040001044C47499F80000C0EBC00000EB3F
:101EF00040001044C0F80D3008783946C0EBC000EF
:101F000000EB400010442246A0F811600020BDEC18
:101F1000028BBDE8F05FFFF74BBC0000B20500206C
:101F200025000010FA0600202DE9F05F80462DED17
:101F3000028BB0EE408A18EE100ADFF848A2144671
:101F40000E46B0F1844F5BD000EE108A0AF1A40077
:101F50000519B8EE400A8C4F00F1A40BA0F5BB792F
:101F6000B4EEC08AF1EE10FA51DB005D02284AD0CF
:101F700038780A2810D30126C6EBC60000EB4001D2
:101F80004944A1F115001522FEF7BEF9761CF6B200
:101F90000A2EF1D30920387002210AF8041038788B
:101FA000C0EBC00000EB400248460244117539788E
:101FB00018EE102AC1EBC10101EB41010144CC74C0
:101FC0003978C1EBC10101EB41010144C1F80D2099
:101FD000397818EE102AC1EBC10101EB410101442F
:101FE000A1F811808BF81340CBF80D20ABF81180CD
:101FF0003A782946C2EBC20202EB4202104461E089
:1020000020210AF80210BDEC028BBDE8F09F00EE23
:10201000106AB8EE400AB4EEC08AF1EE10FA54D855
:10202000005D0128EFD03878B8460A2811D301277F
:10203000C7EBC70000EB40014944A1F11500152290
:10204000FEF762F97F1CFFB20A2FF1D3092088F84E
:10205000000001230AF8043098F800104046C1EB54
:10206000C10101EB41014A4611440B7598F800107B
:1020700018EE107AC1EBC10101EB41011144CC749F
:1020800098F80010C1EBC10101EB41011144C1F806
:102090000D700178C1EBC10101EB41011144A1F8C0
:1020A00011608BF81430594618EE103A8BF8134033
:1020B00041F80D3F8E8000782946C0EBC00000EB50
:1020C000400010442246007D56E02E48A430005DBA
:1020D000002898D03878BB460A2811D30127C7EBCF
:1020E000C70000EB40014944A1F115001522FEF79D
:1020F0000BF97F1CFFB20A2FF1D309208BF80000E7
:1021000020480021A4300AF80410035D9BF8000069
:102110005946C0EBC00000EB40004A46104403752E
:102120009BF80000C0EBC00000EB40001044C474FA
:1021300018EE100A9BF80070022BC7EBC70707EBDD
:1021400047071744C7F80D0002D0012B09D010E053
:102150000878C0EBC00000EB40001044A0F81180EC
:1021600007E00878C0EBC00000EB40001044A0F886
:102170001160294622460020BDEC028BBDE8F05FCD
:10218000FFF716BBB20500202500001010B500F0C7
:1021900061F81B48807D00F00F0002282CD0042835
:1021A0002AD0002000F0AEF8012000F0ABF800F0DB
:1021B0002FF8144900200A5C002A1FD1401CC0B22D
:1021C0001428F8D300200A18127D002A16D1401CCA
:1021D000C0B29028F7D30C4C082120460DF0A9FD81
:1021E0000022042120460DF0A4FD0122BDE810408C
:1021F000102106480DF09DBD0020D6E710BD00005F
:1022000040060010B2050020000C02400010024001
:1022100070B50E484FF00004807DC0060BD50C4D04
:1022200004F12000C1B2285DFFF73AFC641CE4B25F
:10223000902CF5D370BD04F12000C1B22020FFF72F
:102240002FFC641CE4B2902CF5D370BD4006001046
:10225000EC03002070B5294D294CA87D227800F0B0
:102260000F0102F00100012906D002290CD0042937
:102270000CD008290AD019E00821FFF711FC60787A
:10228000122100F001000FE0082109E0D00705D07D
:102290006078C00702D00821012001E00821002059
:1022A000FFF7FEFB12212020FFF7FAFBA87D800636
:1022B00011D520780921C0F30010FFF7F1FBA87DAC
:1022C00000F00F00012801D0082815D160781321F3
:1022D000C0F300100CE009212020FFF7E1FBA87DEE
:1022E00000F00F00022801D0042805D1132120207E
:1022F000BDE87040FFF7D4BB70BD00004006001081
:10230000000000202DE9F04107463B4B07EBC704D6
:10231000384E03EB041400EB870040062368020EDE
:10232000B6F8231036F8210F00EE103AFFF7FCFD47
:1023300007EB8705012000EB45006368C2B2718896
:10234000308800EE103AFFF7EFFD022000EB450069
:10235000A368C2B27188308800EE103AFFF7E4FD3E
:10236000072000EB4500C2B2636FB189708900EEAF
:10237000103A213EFFF7D8FD06EB470816F8251F57
:10238000B8F8170064224143B1FBF2F18FB27178C3
:102390004843B0FBF2F086B2032000EB4500C2B226
:1023A000A069314600EE100A3846FFF745FA0420CE
:1023B00000EB4500C2B2E069314600EE100A384633
:1023C000FFF73AFA052000EB4500C2B2206A314619
:1023D00000EE100A3846FFF72FFA062000EB450002
:1023E000C1B2226CB8F82700BDE8F04100EE102A17
:1023F000FFF7CEBC400600109804001070B58CB0FA
:102400000D460646202104A8FDF7A5FF2B493046BE
:1024100013F038FB2A4C2BA1A07800906378227827
:1024200004A821F059F904AB2A460021304613F0E4
:102430000CFC607900902379E27827A104A821F0B0
:102440004BF904AB2A460121304613F0FEFBD4F8C9
:102450000D00FEF7EDF841EC100B24A153EC102B0E
:1024600004A821F039F904AB2A460221304613F0C2
:10247000ECFB217DE07C04AA2BF056FB04AB2A4642
:102480000321304613F0E1FB207BFF2807D018A37F
:102490002A460421304613F0D8FB0CB070BD207AD8
:1024A000E37AA27A617A8DE80F00E379A27911A12B
:1024B00004A821F011F904ABEAE7000014A0040815
:1024C000087A012025302E32642F25302E32642FD9
:1024D00025302E326400000025302E32643A25303B
:1024E0002E32643A25302E3264000000252E3266EA
:1024F0000000000025302E32642F25302E32642F4C
:1025000025302E32642025302E32643A25302E328A
:10251000643A25302E32640070B586B000226946D8
:102520004B480EF06FF8002205A949480EF048F814
:1025300048485524484D04739DF8171001709DF8C4
:10254000151041709DF8161081709DF80010C17033
:102550009DF8011001719DF80210417135F8010FCD
:10256000C0EBC00000EB400000F2065086B234F031
:10257000F7F815223146374804F062FD34F010F9BF
:102580002888401C80B225F80109B0F5FA7F04D3F1
:10259000012028700020A5F8010034F0E1F80322A2
:1025A00040F202512C4804F04BFD34F0F9F82A486F
:1025B000401E0178C1EBC10101EB410227490A44E9
:1025C00014739DF817300278C2EBC20202EB42028C
:1025D0008B549DF815300278C2EBC20202EB420226
:1025E0000A4453709DF816300278C2EBC20202EB27
:1025F00042020A4493709DF800300278C2EBC20296
:1026000002EB42020A44D3709DF801300278C2EB1B
:10261000C20202EB42020A4413719DF802200078C4
:102620000F4CC0EBC00000EB400008440821427191
:10263000012220460DF07DFB0122042120460DF0F1
:1026400078FB0022102107480DF073FB06B070BD27
:10265000D8070020FA06002026000010E004002021
:10266000000C0240001002400A4910B5002008701A
:10267000491CA1F80100087034F072F805480322E3
:1026800040F20251401C04F0DBFCBDE8104034F085
:1026900087B80000250000102DE9F04387B00546FB
:1026A0000022694663480DF0ADFF002205A961488C
:1026B0000DF086FF6048614E4FF0FF08017829B1A8
:1026C0008146B0F80100401E04B231E0B0F80100CC
:1026D000401E04B214E0C4EBC40000EB400000F262
:1026E000065087B234F03CF815223946534804F0BE
:1026F00097FB34F055F8F07CA84231D0641E24B228
:10270000002CE8DA51E0C4EBC40000EB400000F21A
:10271000065087B234F024F815223946474804F0B1
:102720007FFB34F03DF8F07CA84219D0641E24B23F
:10273000002CE8DA4FF4FA7433E0C4EBC40000EB89
:10274000400000F2065087B234F00AF815223946EC
:102750003A4804F065FB34F023F8F07CA8421ED11F
:1027600086F80C809DF81700B0719DF81500F07187
:102770009DF8160030729DF8000070729DF80100FF
:10278000B0729DF80200F07233F0EAFFBF1DB9B2DB
:102790000722B01D04F054FC34F002F805E0641E7A
:1027A00024B2B9F80100A042C7DD2348401E0178D9
:1027B000C1EBC10101EB410321490B4483F80C80BB
:1027C0009DF817300278C2EBC20202EB42020A44C3
:1027D00093719DF815300278C2EBC20202EB4202FF
:1027E0000A44D3719DF816300278C2EBC20202EBA4
:1027F00042020A4413729DF800300278C2EBC20212
:1028000002EB42020A4453729DF801300278C2EB97
:10281000C20202EB42020A4493729DF80220007841
:10282000C0EBC00000EB40000844C27207B0BDE836
:10283000F0830000D807002026000010FA060020D0
:10284000E004002038B5446805460146204616F0ED
:102850007DF9002808BF38BD464A286811280DD0E8
:1028600006DC0B282AD00E2838D00F2817D07CE0A1
:10287000282873D0B0F5107F0AD076E09268002A3D
:1028800008BF38BD294601B02046BDE8304010479A
:10289000526801B029462046BDE830401047254621
:1028A000204605F0A5FF0090406E0468684606F0DB
:1028B00037F8002C1CBF2846A04738BD204605F03D
:1028C00097FF0090683005F095FE009803216C306A
:1028D00005F0BEFE684606F023F846E0E968486861
:1028E00009680D2902D0202918D037E0002835DDED
:1028F0004FF48071204616F0F4F9204605F078FF79
:10290000009090F82850684606F00AF815F0020F7B
:102910001ED00121204617F086FF19E0002817DDA0
:1029200025464FF48071204616F0DBF9284605F065
:102930005FFF009090F82840684605F0F1FF14F022
:10294000020F08BF38BD0121284617F06CFF38BDC3
:102950002046BDE8384002211EF02CBDE86820B9B1
:1029600020464FF4807116F095F82846BDE83840AF
:1029700016F076BEDC01001070B5044686B08069A2
:10298000B4F908C0658A00260091CDE90165CDE95A
:1029900003C0B4F90C00B4F91050C118B4F90A001E
:1029A000B4F90EC010442B46624600F007F8054605
:1029B000616800F0B0F906B0284670BD2DE9F04F0F
:1029C00085B09846DDE91164DDE90E5791468A46E7
:1029D000834607F009FE04F14C001749CDE90210C7
:1029E000CDE9005743464A465146584616F07CFD0D
:1029F00005001BD005F0FCFE10223146049016F0B5
:102A00003BFB0E4C0499B4E8CD133431A1E8CD134F
:102A100094E80D10A1E80D1054F82C0D086004A8DE
:102A200005F07EFF20684168284688470AF0AEFD21
:102A300005B02846BDE8F08F45280108E8010010E0
:102A4000F0B5044680688C4989B051F82050606820
:102A5000002800F00A81052806D006287DD012281B
:102A600000F0B48000F004B9E869002808BF00262F
:102A700051D0D5E90012AB688DE80F0004F11001C8
:102A80000FC90BF0E7FB002655F8260009F04DFDB5
:102A9000A169E8690A1A216901446069304407F0B4
:102AA00001F9A169E8690A1A21690144E069801BFA
:102AB00007F0F8F8E169E8690A1A616901442069D8
:102AC000304407F00DFAE169E8690A1A61690144C6
:102AD000A069801B07F004FA761C022ED4DBA868DC
:102AE00009F023FDE069E969D4F814C0431A2069AC
:102AF00042186144801C521E07F00EFBE169E86930
:102B0000A2690B1A61690144101A401C921E07F059
:102B100003FBEE6911E055F8260009F006FDE069B7
:102B2000831BA069821B606981192069304407F00A
:102B300085F9761C022EEEDB0226D5E90301CDE9EC
:102B40000001E169606901444B10A1698A1B811C85
:102B50002069304406F09CFF00E011E0D5E9050152
:102B6000CDE90001E0696169831E01440122A06989
:102B700002EB6101821B2069304406F089FF77E097
:102B8000206805F035FE0490206818F085FF50B1EC
:102B9000A068002818BF00200AD10498006F002800
:102BA00018BF012004E00498406F002818BF0220DD
:102BB000049901EB8000C56E04A805F0B1FE002366
:102BC0001A462846216806F083FB51E0206805F08C
:102BD0000FFE0490866E002E08BF04A842D0A168A4
:102BE000B0F95C70002908BF012103D003290CBF94
:102BF0000221002100EB8101406D0C6C09F0ACFC5E
:102C0000204609F092FC06A807F084FBBDF81810D6
:102C1000A88B0144ADF81810BDF81C10081AADF8C7
:102C20001C00BDF81A00801CADF81A00BDF81E008B
:102C3000801EADF81E000498B0F96020B0F95E1057
:102C400006A808F061FF04A805F06AFE022009F05A
:102C50000DFD304605F0CCFD3A4606A9059006F07C
:102C600057FC05A805F05CFE02E0206818F08EF81D
:102C700009B00020F0BD0000F4F30508F0B583B002
:102C800016460D46040004BF03B0F0BD07F0ACFCCF
:102C9000204605F0ADFD0190806E0027002808BF9A
:102CA0002F7011D005F0A4FD0090FDF75FFB0446E6
:102CB000701E84420FDC224628460099FDF724FB53
:102CC000684605F02DFE2F5501A805F029FE0AF0F3
:102CD0005DFC03B0F0BD0446EDE700294FF01001A4
:102CE00001D015F0FEBF15F0D5BE002808BF704713
:102CF00038B50C46054607F077FC284605F078FD08
:102D000000904465684605F00BFE284617F0FCFC71
:102D10000AF03CFC38BDF0B583B00F4605004FF01B
:102D2000010421D007F060FC284605F061FD019008
:102D3000866E01A8009605F0F3FD394668460BF053
:102D400013FF78B100980024B04208D0284605F05F
:102D50004FFD01900099816601A805F0E1FD28462C
:102D600017F0D2FC0AF012FC03B02046F0BD002898
:102D700008BF7047F8B515460C46064607F034FC08
:102D8000304605F035FD0090032C3CBF00EB84007D
:102D90000564684605F0C4FD304617F0B5FC0AF03E
:102DA000F5FBF8BD70B504464FF47F4009F0BDFB5C
:102DB00004EB84040F2000EB8402022000EB84006B
:102DC000CD23AF2107F0A8F94FF47F05284609F07D
:102DD000ACFB082000EB84042046C8230246B42143
:102DE00006F08CFF284609F0A0FB20460222B42101
:102DF00007F0D2F8284609F098FB20460222C821A5
:102E000007F0CAF8284609F090FB22461046B42382
:102E1000AF2106F073FF2246BDE87040CD23104677
:102E2000C82106F06BBF70B504464FF47F4009F02F
:102E30007CFB04EB8404FE2000EB8402F12000EB19
:102E40008400CD23AF2107F067F94FF47F052846B2
:102E500009F06BFBF72000EB84042046C8230246F0
:102E6000B42106F04BFF284609F05FFB2046022202
:102E7000B42107F091F8284609F057FB20460222BA
:102E8000C82107F089F822461046B423AF2106F086
:102E900035FF2246BDE87040CD231046C82106F01C
:102EA0002DBF70B50446FF2009F03FFB04EB8405FD
:102EB0000F2000EB8502022000EB8500CD23AF211F
:102EC00007F02AF94FF47F06304609F02EFB082060
:102ED00000EB8504032000EB8500C8232246B721C0
:102EE00006F00CFF304609F020FB20460222B421F8
:102EF00007F052F8304609F018FB20460222C8219C
:102F000007F04AF8304609F010FB22461046B42379
:102F1000AF2106F0F3FE2246BDE87040CD231046F7
:102F2000C82106F0EBBE70B50446FF2009F0FDFA9B
:102F300004EB8405FE2000EB8502F12000EB850008
:102F4000CD23AF2107F0E8F84FF47F06304609F0B3
:102F5000ECFAF72000EB8504F22000EB8500C82393
:102F60002246B72106F0CAFE304609F0DEFA2046B6
:102F70000222B42107F010F8304609F0D6FA2046B4
:102F80000222C82107F008F8304609F0CEFA22469E
:102F90001046B423AF2106F0B1FE2246BDE87040D2
:102FA000CD231046C82106F0A9BE0A0000EB80011F
:102FB0004FF0090330B403EB810109B216D0012AA6
:102FC0001CD0022A1ED0032A20D0032300EB800449
:102FD00003EB84031CB2042A1CD0052A25D1032349
:102FE000A0222146793030BC06F0E4B9092801DA84
:102FF000012300E00223A022401CF4E70223A022C8
:103000001930F0E70223A0223130ECE70223A0229E
:103010004930E8E700F16105032801DA022301E005
:1030200021460323A0222846DDE730BC70470A0072
:1030300000EB80014FF0090303EB810109B20ED0D0
:10304000012A14D0022A16D0032A18D0042A1AD032
:10305000052A1CD10223A0223D3006F0ABB9092875
:1030600001DA012300E00223A022401CF5E702233D
:10307000A0220D30F1E70223A0221930EDE7022350
:10308000A0222530E9E70223A0223130E5E770478E
:103090000A0000EB80014FF0F80303EB810109B255
:1030A0000ED0012A14D0022A16D0032A18D0042ADE
:1030B0001AD0052A1CD10223A0223D3006F07AB98D
:1030C000092801DA012300E00223A022401CF5E7D1
:1030D0000223A0220D30F1E70223A0221930EDE7F0
:1030E0000223A0222530E9E70223A0223130E5E7C0
:1030F0007047FEE72DE9F84F446805460146204633
:1031000015F024FD002808BFBDE8F88F28680B28BB
:1031100073D00E2805D00F2823D0B0F5107F30D003
:1031200075E0204605F064FB009090F8746090F81C
:103130007570684605F0F4FB204618F0ADFC0028D9
:1031400065D0E8684168002961DD006820285ED10B
:10315000781CB0FBF6F106FB1101204600F016FBCF
:1031600055E02546204605F043FB0090006F0468BB
:10317000684605F0D5FB002C1CBF2846A047BDE8DB
:10318000F88F26460027204605F032FB009090F885
:10319000749090F87580B0F930A0684605F0C0FBD7
:1031A000EC6824B3304617F097F920B13946304621
:1031B00017F039FB2BE0207A88B10121304617F057
:1031C000DBFC08F10100B0FBF9F109FB110130460D
:1031D00000F0DCFA0121304617F025FB17E0022150
:1031E000304617F020FB504609F058FA0FE0032153
:1031F000304617F018FB0AE0FFE7204605F0F8FA22
:103200000090783005F0F6F9684605F089FB28460D
:10321000BDE8F84F16F024BA70B586B0B0F9084092
:10322000458AD0F818C00026CDE90254CDE9001631
:10323000CDF810C0B0F90C10B0F91040B0F90EC0C4
:10324000B0F90A00194410442346624600F002F81F
:1032500006B070BD2DE9FF4F85B01D46DDE912A710
:10326000DDE9158916468B4607F0BEF9264C0EB1EE
:1032700035B10AE02068806800688047064625B9B5
:103280002068806800688047054620486FF07041DC
:10329000C068884208BF47F0010709F154011C4883
:1032A000CDE900A7CDE902012B46324659460598E3
:1032B00016F01AF9050021D005F09AFA10224146BD
:1032C000049015F0D9FE241D0499B4E8CD133431CF
:1032D000A1E8CD1394E8CD11A1E8CD1154F8240D47
:1032E00041F87009022081F874000F20C86704A813
:1032F00005F016FB20684168284688470AF046F921
:1033000009B02846BDE8F08FFC0200100003001051
:10331000F53001082DE9F04F0446006899B028B156
:1033200018F0BAFB002808BF012500D00025FD4891
:1033300050F8256060680A2800F0708108DC0028D9
:1033400000F0DB8106283ED007280CD000F0E6B95B
:10335000122800F02D81192802BFB06919B0BDE80C
:10336000F08F00F0DBB9256807F03EF9284605F03C
:103370003FFA0090C76F684605F0D2FA0AF006F9E6
:103380005FF0000556F8250009F0CFF82069C11953
:10339000491B4B1E61691A462944284406F04EFD1C
:1033A0006D1C032DEED3D6E90301CDE900012069A0
:1033B000C119491B4B1E61691A462944284406F06D
:1033C00067FB00F0ABB9A068401E1590246807F0B9
:1033D0000BF9204605F00CFA0090C46F684605F022
:1033E0009FFA0AF0D3F8DFF8409359F82570002FC0
:1033F0001CBF159800EB80010DD000BFB7F8480046
:10340000A04205D107EB8100806808B11FB1C5E07B
:10341000FF6C002FF2D1502005F058F9070000F0A2
:103420007D81502200210BF02DFC70697864A7F893
:10343000484059F82500F864A4F10608BB4849F84B
:10344000257080FB08104110A1EBE0710320109063
:103450000120129007F14000159D119005EB8500A9
:1034600007EB8000029005EB450007EB8000283059
:103470000D9008EBD8704210401000EBD073A0EB19
:1034800063004618501A0A9008F10700C11700EBB4
:1034900051704FEAE00A0AFB08F4CDF82480204678
:1034A00005F014F95FEA000978D0224600210BF0FC
:1034B000E9FB0A98129A012826DD109B012130466B
:1034C000334483421BDD4FEAE27C02EB5C7E02F078
:1034D000070C802424FA0CFC404509DA0AFB00F4AE
:1034E00004EBEE0419F804B04BEA0C0B09F804B035
:1034F0006940401C834202DD0029F9D0ECE70A98BC
:10350000521C761C9042D8DC12990998401A0A90F5
:10351000904226DD1099012034463144A1421BDD42
:10352000D31702EB537E02F007034FF0800C2CFA06
:1035300003F3444509DA0AFB04FC0CEBEE0C19F822
:103540000CB04BEA030B09F80CB06840641CA142B4
:1035500002DD0028F9D0ECE70A98521C761E904252
:10356000D8DC0D98022101600D99012008710D9A97
:10357000119991600299C88002980021A0F804A0D6
:103580000298C0F808900298016102990D98C860ED
:103590000299099808800298A0F8028015980322E1
:1035A00000EB800007EB8000114606F07DF8B5E0E7
:1035B000206805F01DF90290B0F9546090F856703B
:1035C000D0F84490D0F8348002A805F0A9F9256815
:1035D00007F00AF8284605F00BF90390B0F87C5084
:1035E00003A805F09DF909F0D1FF684616F02AFB03
:1035F000BDF80000E9190844ADF80000246A40460F
:1036000008F0AAFF022009F031F8484608F08DFFC3
:1036100032466946204605F07BFF7FE0206805F0D2
:10362000E7F80490B0F9546090F85690D0F83480E0
:10363000876C04A805F074F9256806F0D5FF2846C4
:1036400005F0D6F80390B0F87C5003A805F068F9AF
:1036500009F09CFF684616F0F5FABDF8000005EB8E
:1036600009010844ADF80000206A06F0B1FE0446E6
:10367000404606F0D9FE26F00301042904BFBDF838
:103680000610091A08D00C2908D1BDF90610091A2C
:10369000491C01EBD1714910ADF8021026F00C0164
:1036A00001290CD0022913D1BDF90410BDF9002065
:1036B000891A091B01EBD17102EB610106E0BDF82B
:1036C0000420BDF80010521A121B1144ADF800106E
:1036D000BDF80010621E1144ADF80410BDF80210D0
:1036E000401E0844ADF80600384608F01EFF4FF0B3
:1036F000FF31684606F07EF810E0206817F046FBC0
:10370000206805F075F80590B0F90610B0F90220B0
:10371000891A491CC16705A805F002F919B00020F3
:10372000BDE8F08F70F50508DC030020676666666B
:10373000002808BF704738B50C46054606F054FF10
:10374000284605F055F80090016CA1420FD00464A2
:10375000B4F1807F04D20021284617F0DDFB03E09E
:103760000121284617F0D8FB284616F0CDFF684601
:1037700005F0D6F809F00AFF38BD000002490148FB
:1037800008607047E0D50508FC020010002808BF5B
:10379000704738B50C46054606F026FF284605F06A
:1037A00027F8009090F87410A1420CD980F8754069
:1037B000684605F0B5F8284616F0A6FF052128460C
:1037C00017F031F802E0684605F0AAF809F0DEFECD
:1037D00038BD000000B589B0002000900290039031
:1037E00004900590069007900890192001900448D5
:1037F0000068806841686846884709B000BD0000DD
:10380000FC02001010B50023012204E0845C521C6D
:1038100023449BB292B28A42F8D3D843401C80B270
:1038200010BD000070B5FF221346B1F5006F00D93E
:103830000021084D05F58076491E89B206D310F89F
:10384000014B54402A5D5A40335DF5E743EA0220BC
:1038500070BD00006C77040870B590B015460E4638
:103860004468002209A91F480CF0CCFE00220EA9D2
:103870001C480CF0A5FE9DF8260000909DF8253010
:103880009DF8242018A101A81FF026FF29462046F4
:1038900016F034FA01A914F0C8FC2946204616F0A7
:1038A0002DFA6FF07F45294614F002FD9DF83A008D
:1038B00000909DF839309DF83B2010A101A81FF021
:1038C0000BFF3146204616F019FA01A914F0ADFCA1
:1038D0003146204616F012FA294614F0E9FC10B0E1
:1038E00070BD0000D807002025302E32643A253004
:1038F0002E32643A25302E32643A000032302530C0
:103900002E32642F25302E32642F25302E32640063
:103910001CB516F0DDF90346002000900190074A1F
:103920002221074805F040FB044616F0C5F90023A4
:10393000C822194615F0A8FD20461CBDED4E03080F
:1039400088A405081CB516F0C3F9034600200090B2
:103950000190074A0B21074805F026FB044616F0A4
:10396000ABF90023C822194615F08EFD20461CBD78
:10397000495C030840A805081CB516F0A9F90346E0
:10398000002000900190074A0921074805F00CFB30
:10399000044616F091F90023C822194615F074FD6B
:1039A00020461CBD2D7F0308609905081CB516F044
:1039B0008FF90346002000900190074A092107482B
:1039C00005F0F2FA044616F077F90023C8221946EA
:1039D00015F05AFD20461CBD518C03085C9A050861
:1039E0001CB516F075F90346002000900190034ABB
:1039F0001821034805F0D8FA1CBD00004D38030813
:103A0000D4AD05081CB516F063F9034600200090FC
:103A10000190074A4A21074805F0C6FA044616F005
:103A20004BF90023C822194615F02EFD20461CBD77
:103A3000FD3A0308589B05081CB516F049F90346E2
:103A4000002000900190034A0321034805F0ACFADE
:103A50001CBD0000D94D030880AD05081CB516F04B
:103A600037F90346002000900190074A0A210748D1
:103A700005F09AFA044616F01FF90023C8221946E9
:103A800015F002FD20461CBD219E030870A3050809
:103A90001CB516F01DF90346002000900190074A5E
:103AA0003B21074805F080FA044616F005F900238B
:103AB000C822194615F0E8FC20461CBD91A3030856
:103AC0002CB905081CB516F003F903460020009038
:103AD0000190034A1621034805F066FA1CBD000058
:103AE000CD61030874A905081CB516F0F1F803466A
:103AF000002000900190074A0721074805F054FA7A
:103B0000044616F0D9F800236422194615F0BCFCCF
:103B100020461CBD05660308C8B005081CB516F094
:103B2000D7F80346002000900190034A0F21034874
:103B300005F03AFA1CBD0000156A0308DCAB050865
:103B40001CB516F0C5F80346002000900190074A06
:103B50001C21074805F028FA044616F0ADF80023AA
:103B6000C822194615F090FC20461CBD396B03088D
:103B700044B505081CB516F0ABF8034600200090CC
:103B80000190074A2221074805F00EFA044616F074
:103B900093F80023C822194615F076FC20461CBD78
:103BA000897303088CB105081CB516F091F803461B
:103BB000002000900190034A0321034805F0F4F926
:103BC0001CBD0000FD7D030874B005081CB516F08F
:103BD0007FF80346002000900190074A062107481D
:103BE00005F0E2F9044616F067F80023C8221946EA
:103BF00015F04AFC20461CBDE999030854B8050895
:103C00002DE9F84F4FF000095FEA000A4D464C4697
:103C10004FF08108CDF8009050D0782632F0A0FD0A
:103C200031466E22274803F0FBF832F0B9FD254EED
:103C3000002036F81010401CC0B20C440091372808
:103C4000F7D300276A463E21504600F0C9F9A0B3D9
:103C50007F1CFFB2052FF5D3601B10F5AB4F2AD0A8
:103C60005A2000906A46C921504600F0EDF9002420
:103C7000002536F8140008EB04070090F9B26A46F4
:103C8000504600F0E1F918B16D1CEDB2052DF5D3E9
:103C9000641CE4B2372CEBD34FF6844000906A46A4
:103CA0008321504600F0D0F96A46C9215046CDF82C
:103CB000009000F0C9F9BDE8F88F01E00226ADE7F9
:103CC000009DC9E768070020064B30B1012807D1E5
:103CD0000122410218460CF02CB801221102F9E72A
:103CE0007047000000040240F0B500242DED028B67
:103CF00081B00E46074625466A463146384600954D
:103D000000F06EF958B1641CE4B2052CF4D3052C14
:103D10000ED0B0EE480A01B0BDEC028BF0BD9DEDB7
:103D2000000ADFED050AB8EE400A80EE208AEEE7D1
:103D30009FED020AEFE70000000048450000000088
:103D4000064B30B1012808D10022410218460BF081
:103D5000F0BF00224FF48071F8E770470004024082
:103D600070B506462DED028B82B000200D4604464C
:103D700000906A462946304600F032F958B1641C7A
:103D8000E4B2052CF5D3052C0ED0B0EE480A02B0F3
:103D9000BDEC028B70BD9DED000ADFED050AB8EEAB
:103DA000400A20EE208AEEE79FED020AEFE70000CE
:103DB00000000039000000002DE9FF5F0025812090
:103DC000CDE900502F4600F08BF905200BF03CFAAE
:103DD0003F4C0122114620460BF0ABFF012202218D
:103DE00020460BF0A6FF00240DF1080B4FF0FF0951
:103DF00074B1782082466A460021204600F0F0F82F
:103E00005A2000906A46C921204600F01DF93DE085
:103E10000220EFE7002046F8240051466E222D488C
:103E200002F0FEFF0025B3462A48002630F81500B0
:103E30000090019800EB050808F0FF016A46204653
:103E400000F002F918B1761CF6B2052EF4D35BF837
:103E50002410009A6D1C1144EDB24BF82410372D3C
:103E6000E2D300256A463E21204600F0B9F848B367
:103E70006D1CEDB2052DF5D35BF824107F1C01F508
:103E8000AA41FFB24BF82410052F1ED05BF8241076
:103E90005E464945BED14FF6844000906A46832174
:103EA000204600F0D1F8002000906A46C921204643
:103EB00000F0CAF8641CE4B2022C97D304B00020CE
:103EC000BDE8F09FDDF80090D6E70027E3E70000AB
:103ED000001002406807002000B500222DED028B83
:103EE00081B000926A4600F07BF838B99DED000A77
:103EF000DFED050AB8EE400A20EE208A01B0B0EEF0
:103F0000480ABDEC028B00BD0000003470B50646C7
:103F10002DED048B82B000209FED188B0D460446DA
:103F200000906A462946304600F05AF858B1641CA1
:103F3000E4B2052CF5D3052C1DD0B0EE490A02B031
:103F4000BDEC048B70BD0098010203D5C043401C3A
:103F500020F07F4000EE100AB8EE400A10EE100A82
:103F6000FCF766FB53EC182BFCF7D1FAFCF773FB5C
:103F700009EE100ADFE79FED030AE0E7B00277FEE3
:103F8000BF7A903F0000000070B506462DED028B11
:103F900082B000200D46044600906A46294630460D
:103FA00000F01EF858B1641CE4B2052CF5D3052CC2
:103FB0000ED0B0EE480A02B0BDEC028B70BD9DED94
:103FC000000ADFED050AB8EE400A20EE208AEEE78F
:103FD0009FED020AEFE7000000000039000000003A
:103FE0002DE9F84317460E4680460025FFF7A8FE48
:103FF000304600F05DF80224FF2000F059F83855F3
:10400000641E64B20544002CF6DA2E2000F050F84D
:1040100000246F46FF2000F04BF83855641C64B252
:10402000032CF7DB4046FFF74FFE9DF80000B0423F
:1040300008D1BDF80100A91940BA814202D100207F
:10404000BDE8F8830120FBE72DE9F84317460E464B
:1040500080460025FFF774FE304600F029F8022460
:10406000385D00F025F8385D641E64B20544002C0C
:10407000F6DA2E2000F01CF800246F46FF2000F036
:1040800017F83855641C64B2032CF7DB4046FFF781
:104090001BFE9DF80000B04208D1BDF80100A9192F
:1040A00040BA884202D10020BDE8F8830120FBE736
:1040B0000EB500218DF808006FF07F408DF80410D8
:1040C0000090012301AA02A904480CF013FD10B1CD
:1040D000FF208DF804009DF804000EBD100700209D
:1040E0000C480B49012201604FF4827141600021AC
:1040F0008160C160C0E90412520282613822C0E9C5
:104100000721416281620721C1620CF0FFBB000000
:104110000038004010070020014800687047000088
:104120002002001001480AF019BF0000AC11001075
:1041300001480AF013BF0000EC10001001681823BA
:10414000CAB2103AB2FBF3F2054B6FF30901032A2E
:104150009B5CC36500D9091D816508467047000056
:10416000C0C0050810B5014600208B698A6A4FF06F
:10417000C07453B1B3F5005F15D072B1012A0CD0F1
:10418000022A0AD0032A09D104E01AB1012A06D072
:10419000022A03D1C96AC90100D5012010BDC96A2C
:1041A000A142FAD010BD002AF7D0012AF2D0022A8B
:1041B000F3D0032AF3D010BD30B50468256825F488
:1041C00080252560046863608368402B036803D002
:1041D00099600068C26030BD9A600068C16030BDFF
:1041E0002DE9F04389B00D46040004BF09B0BDE8D5
:1041F000F08306F0F9F9112D6BD0132D57D0264618
:10420000204604F0F5FA0290C06B04F05BFC074610
:1042100002A804F085FBA5F14100192898BF2035BC
:10422000A8460024002F71DD0025304604F0E0FA96
:104230000590C06B214604F051FC814605A804F0AE
:104240006FFBB9F1000002D004F0D2FA05460395E5
:10425000002D58D02878A0F14101192998BF2030AD
:10426000C5B203A804F05CFB45454CD1002E4DD0EF
:1042700006F0BAF9304604F0BBFA0190C06B04F0C6
:1042800021FC002818BF401E844244DC0198B0F98C
:104290003410A14231D0848601A804F041FB30469D
:1042A00016F032FA0421304616F0BDFA28E006F086
:1042B0009BF9204604F09CFA0090B0F9345068460F
:1042C00004F02EFB09F062F9691C204600F050FC56
:1042D0001CE006F089F9204604F08AFA0190B0F952
:1042E000345001A804F01CFB09F050F9290018BF54
:1042F000691E204600F03CFC08E001A804F010FB19
:1043000009F044F902E0641CBC428DDB09B0BDE851
:10431000F04309F03BB90446B8E7002814BF002970
:104320007047F8B50C46054606F05EF9284604F0DD
:104330005FFA0090C66B684604F0F2FA2046FCF77C
:1043400015F8421C2146304604F010FB284616F0B2
:10435000DBF909F01BF9F8BDF0B54468054685B0F6
:10436000204604F045FA0190D0F8886001A804F0D6
:10437000D7FA002E14BF012700272946204614F043
:10438000E5FB002804BF05B0F0BD2868112876D0F1
:1043900006DC0B2870D00E286FD00F286ED0D4E02A
:1043A0000027212805D026282FD0B0F5107F6CD00B
:1043B000CBE0E8684168002943DD00680D2840D162
:1043C00030460FF015FF002806DB30460FF010FFD7
:1043D0000146204600F0CCFB002C7CD006F004F90E
:1043E000204604F005FA0290D0F8880038B115F0A4
:1043F00071F90298C0F88870204616F085F902A875
:1044000004F08EFA09F0C2F89CE0E868012809D0AF
:104410000A2802D00B2815D097E00A21204616F072
:1044200002FA92E030460FF0E3FE002809DB304646
:104430000FF0DEFE0146204600F09AFB204616F003
:10444000C3FB82E0002C45D006F0CEF8204604F0F5
:10445000CFF90090D0F8880038B115F03BF90098FA
:10446000C0F88870204616F04FF9684604F058FAF4
:1044700009F08CF869E002E02FE043E01BE0002F38
:1044800063D1E868007A38BB5FE0E86868B1007A19
:1044900028B10121204616F0C6F905B0F0BD022171
:1044A000204616F0C0F905B0F0BD0321204616F0F5
:1044B000BAF905B0F0BD2646204604F099F90290FD
:1044C000D0F88400046802A804F02AFA002C1CBF6B
:1044D0003046A04739E035E02CE0204604F088F96A
:1044E0000090C06B04F084FA0098D0F8880015F0B2
:1044F000F1F80098D0F8940004F046F8684604F00B
:104500000FFA22E0E868416800291EDD01682029D1
:1045100010D00ADC092911D00A2918BF1B2914D090
:104520002046FFF75DFE05B0F0BD212918BF222906
:10453000F6D10AE0204600F0D5F906E015F024FC9B
:10454000B04202D1204616F03FFB284615F088F80D
:1045500005B0F0BD002808BF704738B5044606F026
:1045600043F8204604F044F90090D0F8880040B1A8
:1045700015F0B0F800990020C1F88800204616F028
:10458000C3F8684604F0CCF909F000F838BD70B5FE
:1045900086B0B0F90840458AD0F818C00026CDE9A9
:1045A0000254CDE90016CDF810C0B0F90C10B0F9E6
:1045B0001040B0F90EC0B0F90A0019441044234667
:1045C000624600F003F806B070BD00002DE9FF4F11
:1045D00085B01E46DDE91447DDE9128992468B4617
:1045E000169D06F001F805F16C003049CDE9021086
:1045F000CDE900894FF0FF3352465946059814F033
:1046000073FF05004BD004F0F3F8102239460090F8
:1046100014F032FD009880F88C40254C4C30B4E802
:104620008E17A0E88E1794E88E11A0E88E1154F82A
:10463000241D40F88419002180F89010C686284671
:1046400004F0D6F80190B0F9381019B9C06C05F033
:10465000E9FE01460198C26AB0F98030126801EBA8
:104660004301561817F042F8074601A804F058F91C
:1046700032463946284616F029FC684604F050F9BF
:1046800004F0B3F90646284604F0B2F80090C66379
:10469000684604F045F9206841682846884708F0D4
:1046A00075FF09B02846BDE8F08F000059430108A6
:1046B000380100202DE9F041044688B0006804F07C
:1046C00097F80690468ED0F8885006A804F028F98E
:1046D000002D18BF012506F00106206817F0DCF94F
:1046E000002D18BF00200FD07D4951F82050606880
:1046F000002800F0EE80022800F0CE8005280CD0C3
:1047000012287DD000F0E8B8002E18BF0120EBD1B0
:10471000002814BF02200320E6E7D5E90123A86A98
:1047200029688DE80F0004F110000FC809F092FD10
:104730005FF0000655F8260007F0F7FEA169A86AA9
:104740000A1A216901446069304405F0ABFAA16995
:10475000A86A0A1A21690144E069801B05F0A2FADF
:10476000E169A86A0A1A616901442069304405F0C8
:10477000B7FBE169A86A0A1A61690144A069801B54
:1047800005F0AEFB761C022ED4DBA86A02281BDDE6
:10479000A86807F0CAFEE169A86AD4F810C00B1A2D
:1047A0000CEB00014A1E616901440CF1020005F0A6
:1047B000B3FCE169A86AA2690B1A61690144101A85
:1047C000401C921E05F0A8FCD5E90301CDE90001CB
:1047D000E1696069A26901444B10A96AD4F810C06C
:1047E000521A8C44811C604605F052F9D5E9050146
:1047F000CDE90001A069AB6A6169C21AE06900E015
:1048000019E001444FF0010C0CEB6101D4F810C029
:104810009C44831E604605F03BF9686A07F085FEFC
:10482000E2696169A369501A181A401C091D121F18
:1048300005F056FB50E0206803F0DAFF0090B0F876
:104840008060B0F98280C76C684604F069F8208AFD
:10485000B11C0844ADF80800A08A801CADF80A001D
:10486000A08BA18A401A218B891B081AC01EADF8A3
:104870000C00A08B801EADF80E00022007F0F6FEA3
:10488000384607F069FE286A07F04FFE424602A943
:10489000206A04F03DFE1FE06169E0694FF0FF32DD
:1048A000401AA0F1080102EB6106411CA269801BBD
:1048B0004410A2EB6107E86907F037FE002E0BDB1E
:1048C000BA19B91B204605F0EDF9641C761EF7D520
:1048D00002E0206816F05AFA08B00020BDE8F08126
:1048E00004F40508002808BF70472DE9F04F9DB07B
:1048F000064605F079FE304603F07AFF0E9030460A
:1049000015F096FB82460E98B0F9367090F890102C
:10491000099190F88C80D0F83C90B0F93400069062
:10492000484604F0CFF804460E98B0F88E100C916B
:10493000B0F982100791C16C0891D0E90012CDE95D
:104940000412D0F89450016D1091416D1191816D58
:104950001291C16D1391016E1491416E1591016F09
:104960001691416F1791806F18900EA803F0D8FF31
:10497000304615F0AAFA03F03BFF0D90D0F800B0D6
:104980000DA803F0CDFF4FEA2B4042420FFA8BF007
:10499000414204A807F0B8F818F0020F1ABFBDF89A
:1049A0001200C01BBDF81600ADF81200304615F01D
:1049B0008CFA0221CDF800A0CDE901710146BDF9C4
:1049C0001230BDF9102000200FF099FB074618F0B7
:1049D000010F07D0384609990FF0B9FE012138467A
:1049E0000FF0C6FD4FF00008002C0BD94146484699
:1049F00004F074F8014638460FF0B6F808F10108E3
:104A00004445F3D800240DF1400800BF58F8242095
:104A1000214638460FF0D9FD641C032CF6D3002440
:104A20000DF14C08214658F8242038460FF0B5FF08
:104A3000641C032CF6D300240DF15808214658F8C5
:104A4000242038460FF061FE641C032CF6D315B306
:104A5000284603F0CDFE0F9030F8028B0024054667
:104A6000B8F1000FC8BF4FF0010911DD05EBD4000C
:104A700004F00701007809FA01F1084214BF01228D
:104A80000022214638460FF0D6FD641C4445EDDB7C
:104A90000FA803F045FF38460C990FF006FE384684
:104AA00008990FF0ADFD384607990FF05FFF3846C3
:104AB00016F08AF8314638460FF010FE384606994F
:104AC0000FF064FE0121304615F0ADFE304603F0D4
:104AD0008FFE0E90C0F888700EA803F021FF08F03A
:104AE00055FD1DB0BDE8F08F38B505004FF000044E
:104AF0000CD005F079FD284603F07AFE0090B0F95D
:104B00003440684603F00CFF08F040FD204638BDF5
:104B1000002808BF7047F8B50C46074605F064FD4D
:104B2000384603F065FE0090D0F88850C06C05F060
:104B300079FC06460098C464684603F0F1FE3846E6
:104B400000F059F8384615F0DFFD75B1204605F044
:104B500069FCB04205D03846FFF7FCFC3846FFF749
:104B6000C1FE214628460FF04BFD08F00FFDF8BDB1
:104B700038B50C46050008BF38BD05F035FD2846A0
:104B800003F036FE0090C06B03F09CFF002818BFB6
:104B9000401E844216DC0098B0F93410A1420BD0BC
:104BA0008486684603F0BCFE284615F0ADFD04215E
:104BB000284615F038FE02E0684603F0B1FE08F022
:104BC000E5FC38BD0446E6E7002808BF704738B565
:104BD0000C46054605F008FD284603F009FE009046
:104BE000A0F88240684603F09BFE284615F08CFD35
:104BF00008F0CCFC38BDF8B5044603F0F9FD0146D9
:104C00000090B0F93800002804BFC86C05F00AFC19
:104C10000099CA6AB1F98030126800EB4300151898
:104C2000084616F063FD0646684603F079FE2A46FC
:104C30003146204616F04AF9F8BD38B50D46002435
:104C400003F0D6FD0090C06B294603F047FF0546F0
:104C5000684603F065FE1DB1284603F0C9FD044611
:104C6000204638BD08B5FFF7A7F82CF032F80A2522
:104C70000026134C134F0090FCF712F8FBF7BEFF11
:104C8000FDF784FA2078B0FBF5F105FB110008B9B7
:104C9000FCF7AEFA29F084FA20781E2802D1FCF73E
:104CA00061FC267012F0E8FE042138460BF03DF856
:104CB0002078C821401C207068462BF0FEFFDBE7FF
:104CC0000400001000100240704700002DE9F84F6A
:104CD00016468046224C1D4630440F4601EB05091E
:104CE00000902168496E4A68494690472268A8EBBF
:104CF00006004946526E8346526890472068B919AB
:104D000008EB0509406E8A4642684846904722688B
:104D1000B91B0E46526E484652689047002D08BF98
:104D2000BDE8F88F7F1B21680098496E4A683946B4
:104D30009047226839465846526E5268904720681C
:104D4000A8EB05055146406E426828469047226808
:104D500031462846526E526801B0BDE8F04F104708
:104D6000B80000202DE9F14FFF482DED028B82B0F5
:104D7000C07FFE4A9FEDFE8ADFF8F89350600499E9
:104D8000DFF8F4A3DFF8F483FD4EDFF8F8B301EBAE
:104D9000410518287EDB182190FBF1F301FB13037A
:104DA00090FBF1F0002B78D0401C0090049B401E3B
:104DB00083424FF000046FDA2046FDF7F3FF4FF413
:104DC0007F0007F0B2FB04EB8400082101EB8007B1
:104DD00001903846D5230246C82104F08FFF4FF4D6
:104DE0007F0007F0A2FB3A461046B423962104F058
:104DF00085FF4FF47F0007F098FBE3496FF00B024B
:104E000004EBC507B1F9140091ED111A00EE100A78
:104E10000198F8EEC00A02EB800000EE100ADB48B1
:104E2000B8EEC00A41EE000ABDEEE00A10EE102A0C
:104E300040F83720B1F91E20D1ED120A00EE102AF9
:104E400000EBC7000190B8EEC00A00EE880ABDEE84
:104E5000C00A80ED010A08F0F7F9002819D0CB4804
:104E600050F83710B9F80000081A00D540423C2825
:104E70000FDA01984168BAF80000081A00D54042DC
:104E8000B0F5967FF4DA98F80000FF287ED0CC28A1
:104E90007CD0C3E0DAE100E0CDE1002400902046C0
:104EA000FDF780FF4FF47F0007F03FFB04EB840029
:104EB000082101EB800701903846D5230246C8211E
:104EC00004F01CFF4FF47F0007F02FFB3A4610461A
:104ED000B423962104F012FF4FF47F0007F025FB66
:104EE000A9496FF00B0204EBC507B1F9140091ED6D
:104EF000111A00EE100A019802EB800000EE900AF1
:104F0000B8EEC00AA148F8EEE00A01EE200ABDEEB4
:104F1000C00A10EE102A40F83720B1F91E20D1ED5A
:104F2000120A00EE102A00EBC7000190B8EEC00A8A
:104F300000EE880ABDEEC00A80ED010A08F084F98F
:104F400000B3924850F83710B9F80000081A00D59D
:104F500040423C2816DA01984168BAF80000081A65
:104F600000D54042B0F5967F0CDA98F80000FF2893
:104F700001D0CC2806D1F05DB0B10020F055F9B2D7
:104F800011F044FA12F01CFA774800E03FE0807D0F
:104F9000C0062FD51BF8070040B101280AD002280F
:104FA00014D003282ED115E00120E7E72046FDF7B5
:104FB000F9FE02E02046FDF774FF04EB8400820056
:104FC00000230321724805F069F80EE02046FDF742
:104FD000E9FE02E02046FDF764FF04EB8400820056
:104FE000002303216A4804F0DFFE20460499FDF700
:104FF000DCFF07E004EB8400820000230321644807
:1050000004F0D2FE641C182CFFF649AFD9E1F05D24
:10501000A0B10020F055F9B211F0F8F912F0D0F972
:105020005148807DC0062FD51BF8070040B10128EC
:105030000AD0022814D003282ED115E00120E9E778
:105040002046FDF7AFFE02E02046FDF72AFF04EB05
:1050500084008200002303214D4805F01FF80EE074
:105060002046FDF79FFE02E02046FDF71AFF04EB05
:105070008400820000230321454804F095FE204669
:105080000499FDF792FF07E004EB840082000023FF
:1050900003213F4804F088FE641C182CFFF68CAEF8
:1050A0008FE12046FDF77EFE4FF47F0007F03DFACA
:1050B00004EB8400082101EB800701903846D523DA
:1050C0000246C82104F01AFE4FF47F0007F02DFAC3
:1050D0003A461046B423962104F010FE4FF47F00A8
:1050E00007F023FA28496FF00B0204EBC507B1F96A
:1050F000140091ED111A00EE100A019802EB8000E5
:1051000000EE900AB8EEC00A2048F8EEE00A01EE80
:10511000200ABDEEC00A10EE102A40F83720B1F97F
:105120001E20D1ED120A00EE102A00EBC7000190FC
:10513000B8EEC00A00EE880ABDEEC00A80ED010A92
:1051400008F082F830B3114850F83710B9F8000071
:10515000081A00D540423C282EDA01984168BAF876
:105160000000081A18D516E0400600107000001064
:1051700000003443440000104600001038000020B6
:105180006F060010EC030020B0390020407A0120A7
:1051900020B9050810E04042B0F5967F0CDA98F887
:1051A0000000FF2801D0CC2806D1F05DA0B100207E
:1051B000F055F9B211F02AF912F002F98448807D15
:1051C000C0062FD51BF8070040B101280AD00228DD
:1051D00014D003282ED115E00120E9E72046FDF781
:1051E000E1FD02E02046FDF75CFE04EB8400820056
:1051F00000230321774804F051FF0EE02046FDF71D
:10520000D1FD02E02046FDF74CFE04EB8400820055
:10521000002303216F4804F0C7FD20460499FDF7E1
:10522000C4FE07E004EB84008200002303216948E8
:1052300004F0BAFD641C68484168182091FBF0F244
:1052400000FB1210A0423FF72CAFBAE0012000246F
:105250000090B1E02046FDF7A5FD4FF47F0007F078
:1052600064F904EB8400082101EB800701903846C3
:10527000D5230246C82104F041FD4FF47F0007F01A
:1052800054F93A461046B423962104F037FD4FF402
:105290007F0007F04AF951496FF00B0204EBC50794
:1052A000B1F9140091ED111A00EE100A019802EB09
:1052B000800000EE900AB8EEC00A494AF8EEE00A13
:1052C00001EE200ABDEEC00A10EE100A42F83700C7
:1052D000B1F91E00D1ED120A00EE100A02EBC70070
:1052E0000190B8EEC00A00EE880ABDEEC00A80ED5B
:1052F000010A07F0A9FF00B3394850F83710B9F890
:105300000000081A00D540423C2816DA019841688E
:10531000BAF80000081A00D54042B0F5967F0CDAC2
:1053200098F80000FF2801D0CC2806D1F05DA0B18C
:105330000020F055F9B211F069F812F041F8244854
:10534000807DC0062FD51BF8070040B101280AD088
:10535000022814D003282ED115E00120E9E72046C9
:10536000FDF720FD02E02046FDF79BFD04EB8400E5
:10537000820000230321174804F090FE0EE020462F
:10538000FDF710FD02E02046FDF78BFD04EB8400E5
:105390008200002303210F4804F006FD20460499F3
:1053A000FDF703FE07E004EB8400820000230321E5
:1053B000084804F0F9FC641C074840688442FFF682
:1053C00049AF009802B0BDEC028BBDE8F88F000039
:1053D0004006001020B9050870000010B039002008
:1053E000407A01202DE9F14FFF482DED028B82B06C
:1053F000C07FFE499FEDFE8ADFF8F893886004992C
:10540000DFF8F4A3DFF8F483FD4EDFF8F8B301EB27
:1054100041050C287EDB0C2190FBF1F301FB13030B
:1054200090FBF1F0F14A002B79D0401C1061049BF5
:10543000401E834270DA4FF000042046FDF7B2FCB4
:105440004FF47F0007F071F804EB8400082101EBB2
:10545000800700903846D5230246C82104F04EFC50
:105460004FF47F0007F061F83A461046B4239621C6
:1054700004F044FC4FF47F0007F057F8E2496FF066
:105480000B0204EB8507B1F9140091ED111A00EE3F
:10549000100A0098F8EEC00A02EB800000EE100A35
:1054A000DA48B8EEC00A41EE000ABDEEE00A10EE9E
:1054B000102A40F83720B1F91E20D1ED120A00EE73
:1054C000102A00EBC7000090B8EEC00A00EE880A70
:1054D000BDEEC00A80ED010A07F0B6FE00281DD01F
:1054E000CA4850F83710B9F80000081A00D54042F1
:1054F0003C2813DA00984168BAF80000081A00D571
:105500004042B0F5967FF4DA98F80000FF287DD08D
:10551000CC2802E0D9E102E002E177D0BDE000242E
:1055200010614FF47F0007F000F804EB84000821BD
:1055300001EB800700903846D5230246C82104F0CD
:10554000DDFB4FF47F0006F0F0FF3A461046B4232F
:10555000962104F0D3FB4FF47F0006F0E6FFAA4942
:105560006FF00B0204EB8507B1F9140091ED111AED
:1055700000EE100A009802EB800000EE900AB8EEF0
:10558000C00AA248F8EEE00A01EE200ABDEEC00A09
:1055900010EE102A40F83720B1F91E20D1ED120A82
:1055A00000EE102A00EBC7000090B8EEC00A00EE33
:1055B000880ABDEEC00A80ED010A07F045FE00B37F
:1055C000924850F83710B9F80000081A00D5404248
:1055D0003C2816DA00984168BAF80000081A00D58D
:1055E0004042B0F5967F0CDA98F80000FF2801D011
:1055F000CC2806D1F05DB0B10020F055F9B210F022
:1056000005FF11F0DDFE7848807D00E03EE0C00639
:105610002FD51BF8070040B101280AD0022814D06A
:1056200003282ED115E00120E7E72046FDF7BAFB5D
:1056300002E02046FDF735FC04EB840082000023E5
:105640000321734804F02AFD0EE02046FDF7AAFB73
:1056500002E02046FDF725FC04EB840082000023D5
:1056600003216B4804F0A0FB20460499FDF7DFFC02
:1056700007E004EB8400820000230321644804F067
:1056800093FB641C0C2CFFF64CAFD7E1F05DA0B18E
:105690000020F055F9B210F0B9FE11F091FE524819
:1056A000807DC0062FD51BF8070040B101280AD025
:1056B000022814D003282ED115E00120E9E7204666
:1056C000FDF770FB02E02046FDF7EBFB04EB8400E6
:1056D0008200002303214E4804F0E0FC0EE0204647
:1056E000FDF760FB02E02046FDF7DBFB04EB8400E6
:1056F000820000230321464804F056FB204604990B
:10570000FDF795FC07E004EB8400820000230321F1
:105710003F4804F049FB641C0C2CFFF68EAE8DE173
:10572000B3D10024C6E04FF47F0006F0FEFE04EB88
:105730008400082101EB800700903846D5230246FB
:10574000C82104F0DBFA4FF47F0006F0EEFE3A4683
:105750001046B423962104F0D1FA4FF47F0006F0EE
:10576000E4FE29496FF00B0204EB8507B1F9140040
:1057700091ED111A00EE100A009802EB800000EE85
:10578000900AB8EEC00A2148F8EEE00A01EE200ABD
:10579000BDEEC00A10EE102A40F83720B1F91E20E5
:1057A000D1ED120A00EE102A00EBC7000090B8EE0F
:1057B000C00A00EE880ABDEEC00A80ED010A07F0BB
:1057C00043FD38B3114850F83710B9F80000081AF3
:1057D00000D540423C282EDA00984168BAF8000013
:1057E000081A00D5404216E0400600107000001074
:1057F0000000344344000010460000103800002030
:105800006F060010EC030020B0390020407A012020
:1058100020B905080FE0B0F5967F0CDA98F8000083
:10582000FF2801D0CC2806D1F05DA0B10020F055B2
:10583000F9B210F0EBFD11F0C3FD8448807DC00685
:105840002FD51BF8070040B101280AD0022814D038
:1058500003282ED115E00120E9E72046FDF7A2FA42
:1058600002E02046FDF71DFB04EB840082000023CC
:105870000321774804F012FC0EE02046FDF792FA6F
:1058800002E02046FDF70DFB04EB840082000023BC
:1058900003216F4804F088FA20460499FDF7C7FBFE
:1058A00007E004EB8400820000230321684804F031
:1058B0007BFA641C674881680C2091FBF0F200FBC6
:1058C0001210A0423FF72FAFB8E062480121002438
:1058D0000161AEE04FF47F0006F027FE04EB840088
:1058E000082101EB800700903846D5230246C821E5
:1058F00004F004FA4FF47F0006F017FE3A46104613
:10590000B423962104F0FAF94FF47F0006F00DFE5F
:1059100051496FF00B0204EB8507B1F9140091EDCA
:10592000111A00EE100A009802EB800000EE900AB7
:10593000B8EEC00A4948F8EEE00A01EE200ABDEED2
:10594000C00A10EE102A40F83720B1F91E20D1ED20
:10595000120A00EE102A00EBC7000090B8EEC00A51
:1059600000EE880ABDEEC00A80ED010A07F06CFC6B
:1059700000B33A4850F83710B9F80000081A00D5BB
:1059800040423C2816DA00984168BAF80000081A2C
:1059900000D54042B0F5967F0CDA98F80000FF2859
:1059A00001D0CC2806D1F05DA0B10020F055F9B2AD
:1059B00010F02CFD11F004FD2448807DC0062FD589
:1059C0001BF8070040B101280AD0022814D0032890
:1059D0002ED115E00120E9E72046FDF7E3F902E0CA
:1059E0002046FDF75EFA04EB8400820000230321C9
:1059F000174804F053FB0EE02046FDF7D3F902E010
:105A00002046FDF74EFA04EB8400820000230321B8
:105A10000F4804F0C9F920460499FDF708FB07E098
:105A200004EB8400820000230321094804F0BCF940
:105A3000641C084880688442FFF64CAF0548006942
:105A400002B0BDEC028BBDE8F88F000040060010EC
:105A500020B9050870000010B0390020407A0120FC
:105A60002DE9F14FFF48DFF800842DED028B90F80F
:105A700020009FEDFE8AC8F80C000299DFF8F0A321
:105A8000DFF8F0B301EB41060C287BDB0C2190FB27
:105A9000F1F301FB130390FBF1F04246002B74D0AD
:105AA000401C9061029B401E83426DDA4FF000055E
:105AB0004FF47F09484606F038FDD8F8140005EB8E
:105AC000850400EB840008304746D5230246C821F0
:105AD00004F014F9484606F028FD7869B42300EB79
